S014000047495070726F6772616D6D612E737265636A
S11300000C943E000C945B000C945B000C945B001D
S11300100C945B000C945B000C945B000C945B00F0
S11300200C945B000C945B000C945B000C945B00E0
S11300300C945B000C945B000C945B000C945B00D0
S11300400C94FE000C945B000C945B000C945B001D
S11300500C945B000C945B000C945B000C945B00B0
S11300600C945B000C945B000C945B000C945B00A0
S11300700C943A010C945B000C945B0011241FBE99
S1130080CFEFD8E0DEBFCDBF11E0A0E0B1E0EEECF1
S1130090FAE002C005900D92A235B107D9F722E02B
S11300A0A2E5B1E001C01D92AA3BB207E1F70E94AC
S11300B080010C9465050C9400005298539AE8EC66
S11300C0F0E080818D7F808387E190E09093CD0084
S11300D08093CC00AAECB0E08C9186608C93E9EC20
S11300E0F0E080818B7F80838C91877F8C938C91CF
S11300F08F7E8C93808188618083808180688083F7
S113010008955098519AE0ECF0E080818D7F8083CF
S113011087E190E09093C5008093C400A2ECB0E026
S11301208C9186608C93E1ECF0E080818B7F8083FE
S11301308C91877F8C938C918F7E8C938081886146
S113014080838081806880830895E8ECF0E090816A
S113015095FFFDCF8093CE0008950F931F93CF9307
S1130160DF93FC01808181110AC011C08991882329
S113017071F00E94A500C017D107C1F708C08F0114
S11301800E94A500E8012196005C1F4FEFCFDF918C
S1130190CF911F910F910895A1E8B0E08C918A7FCF
S11301A08C938C9182608C93559A549AE0E8F0E099
S11301B080818E7F80838081826080838C9188613E
S11301C08C9380818068808380818F7B8083808111
S11301D08062808380818F7E80838FEF93E290930F
S11301E087008093860087EE90E090938900809347
S11301F0880090938B0080938A0008951F920F9239
S11302000FB60F9211248F939F93EF93FF9395B1A1
S113021083E0892785B980919C02813051F4E09173
S11302205501F0E0EF5FFE4F808188B910929C0287
S11302300AC0E0915601F0E0EF5FFE4F808188B97B
S113024081E080939C0280919D028F5F80939D0248
S113025080919D02803429F410929D0281E0809364
S1130260B902FF91EF919F918F910F900FBE0F9064
S11302701F9018951F920F920FB60F9211242F936F
S11302803F938F939F93EF93FF9380915201282F75
S113029030E09091CE00F901E450FE4F90839D3000
S11302A051F4F901E450FE4F10821092520181E0A2
S11302B08093000103C08F5F80935201FF91EF91FF
S11302C09F918F913F912F910F900FBE0F901F9090
S11302D018950898389A84B5826084BD84B58E7F59
S11302E084BD85B5857F85BD85B5856085BD80EE7A
S11302F087BDEEE6F0E08081826080837894089583
S1130300579A83E084B92898299A0E94CC000E94C5
S11303105D000E9481000E946F020E946901A8E8AA
S1130320B0E087EE90E011969C938E93EAE8F0E0BB
S1130330918380832FEF3FE342E0215030404040DF
S1130340E1F700C0000083EB92E011969C938E933A
S11303509183808385E090E05F9AEFEFFFE322E0F2
S1130360E150F0402040E1F700C000005F983FEF0B
S11303704FE3E2E031504040E040E1F700C00000CC
S1130380019751F7FFEF2FE131E0F1502040304069
S1130390E1F700C000008BE091E00E94AD0078948A
S11303A06894332431F8222423940F2EF8EBEF2E93
S11303B0F2E0FF2EF02D0F2EF3E46F2EF1E07F2EEE
S11303C0F02D0F2EF7EFCF2EF1E0DF2EF02D0F2EB4
S11303D0FAE4AF2EF1E0BF2EF02D4C2C5D2C809171
S11303E00001813009F55F9A309200016FE171E0FC
S11303F08CEF91E00E947302892B11F0109254014A
S11304006BE271E08CEF91E00E947302892B11F092
S11304102092540167E371E08CEF91E00E94730233
S1130420892B11F0309254018091B9028823B9F2DA
S113043010925301CEE9D2E001E010E04E01888130
S1130440813099F4809153018F5F809353011F93FE
S11304500F937F926F92DF92CF920E948D020F9042
S11304600F900F900F900F900F902196F4018081C0
S113047081110EC01F930F93BF92AF92DF92CF9260
S11304800E948D020F900F900F900F900F900F907D
S1130490842D952D0E94AD008FEF97E40197F1F71D
S11304A000C000000F5F1F4FCE15DF0539F68091A5
S11304B053011F928F9384E491E09F938F93DF9273
S11304C0CF920E948D02C6010E94AD001092B90223
S11304D00F900F900F900F900F900F9080CF8AE2A3
S11304E08093B8000895FB0151915523A9F0BF01F1
S11304F0DC014D9145174111E1F759F4CD0101900B
S1130500002049F04D9140154111C9F3FB014111FF
S1130510EFCF81E090E001970895AEE0B0E0E3E929
S1130520F2E00C943C050D891E8986E08C831A83C5
S113053009838FEF9FE79E838D83AE01475E5F4FF4
S11305406F89788DCE0101960E94B0022F81388583
S1130550F801E20FF31F10822E96E4E00C94580584
S1130560ACE0B0E0E6EBF2E00C942E057C016B010C
S11305708A01FC0117821682838181FFBDC1CE01ED
S113058001964C01F7019381F60193FD859193FF48
S113059081916F01882309F4ABC1853239F493FD4D
S11305A0859193FF81916F01853229F4B70190E021
S11305B00E949804E7CF512C312C20E02032A0F483
S11305C08B3269F030F4803259F0833269F420615F
S11305D02CC08D3239F0803339F4216026C022607A
S11305E0246023C0286021C027FD27C030ED380FC8
S11305F03A3078F426FF06C0FAE05F9E300D1124ED
S1130600532E13C08AE0389E300D1124332E2062FD
S11306100CC08E3221F426FD6BC1206406C08C36DA
S113062011F4206802C0883641F4F60193FD8591E7
S113063093FF81916F018111C1CF982F9F7D9554B4
S1130640933028F40C5F1F4FFFE3F9830DC083360A
S113065031F0833771F0833509F05BC022C0F801B3
S1130660808189830E5F1F4F44244394512C54018D
S113067015C03801F2E06F0E711CF801A080B18042
S113068026FF03C0652D70E002C06FEF7FEFC50148
S11306902C870E948D042C0183012C852F77222E18
S11306A017C03801F2E06F0E711CF801A080B18010
S11306B026FF03C0652D70E002C06FEF7FEFC50118
S11306C02C870E9482042C012C852068222E830111
S11306D023FC1BC0832D90E048165906B0F4B701E3
S11306E080E290E00E9498043A94F4CFF50127FC4C
S11306F0859127FE81915F01B70190E00E949804E3
S113070031103A94F1E04F1A51084114510471F731
S1130710E5C0843611F0893639F5F80127FF07C0A2
S113072060817181828193810C5F1F4F08C0608159
S11307307181072E000C880B990B0E5F1F4F2F76CB
S1130740722E97FF09C090958095709561957F4FA3
S11307508F4F9F4F2068722E2AE030E0A4010E9440
S1130760D004A82EA81844C0853729F42F7EB22EB1
S11307702AE030E025C0F22FF97FBF2E8F36C1F07A
S113078018F4883579F0B4C0803719F0883721F02F
S1130790AFC02F2F2061B22EB4FE0DC08B2D84600C
S11307A0B82E09C024FF0AC09F2F9660B92E06C038
S11307B028E030E005C020E130E002C020E132E072
S11307C0F801B7FE07C060817181828193810C5F5B
S11307D01F4F06C06081718180E090E00E5F1F4F63
S11307E0A4010E94D004A82EA818FB2DFF777F2E09
S11307F076FE0BC0372D3E7FA51450F474FE0AC05C
S113080072FC08C0372D3E7E05C0BA2C372D03C0BC
S1130810BA2C01C0B52C34FF0DC0FE01EA0DF11D48
S11308208081803311F4397E09C032FF06C0B3944D
S1130830B39404C0832F867809F0B39433FD13C0B6
S113084030FF06C05A2CB31418F4530C5B18B32CA5
S1130850B31468F4B70180E290E03C870E949804E6
S1130860B3943C85F5CFB31410F43B1801C0312C7C
S113087034FF12C0B70180E390E03C870E949804E3
S11308803C8532FF17C031FD03C088E790E002C009
S113089088E590E0B7010CC0832F867859F031FFCA
S11308A002C08BE201C080E237FD8DE2B70190E027
S11308B00E949804A51438F4B70180E390E00E94E4
S11308C098045A94F7CFAA94F401EA0DF11D80819B
S11308D0B70190E00E949804A110F5CF332009F4E9
S11308E051CEB70180E290E00E9498043A94F6CF8A
S11308F0F7018681978102C08FEF9FEF2C96E2E18A
S11309000C944A05FC010590615070400110D8F721
S1130910809590958E0F9F1F0895FC016150704043
S113092001900110D8F7809590958E0F9F1F089520
S11309300F931F93CF93DF93FB01238121FD03C00A
S11309408FEF9FEF28C022FF16C046815781248174
S113095035814217530744F4A081B1819D012F5F73
S11309603F4F318320838C93268137812F5F3F4F04
S11309703783268310C0EB01092F182F0084F185DB
S1130980E02D0995892BE1F68E819F8101969F8345
S11309908E83812F902FDF91CF911F910F91089516
S11309A0FA01AA27283051F1203181F1E8946F939C
S11309B06E7F6E5F7F4F8F4F9F4FAF4FB1E03ED042
S11309C0B4E03CD0670F781F891F9A1FA11D680FE0
S11309D0791F8A1F911DA11D6A0F711D811D911D13
S11309E0A11D20D009F468943F912AE0269F112488
S11309F03019305D3193DEF6CF010895462F4770EC
S1130A00405D4193B3E00FD0C9F7F6CF462F4F7046
S1130A10405D4A3318F0495D31FD4052419302D0A4
S1130A20A9F7EACFB4E0A69597958795779567954A
S1130A30BA95C9F700976105710508959B01AC014A
S1130A400A2E06945795479537952795BA95C9F771
S1130A50620F731F841F951FA01D08952F923F924C
S1130A604F925F926F927F928F929F92AF92BF92BA
S1130A70CF92DF92EF92FF920F931F93CF93DF9366
S1130A80CDB7DEB7CA1BDB0B0FB6F894DEBF0FBEC3
S1130A90CDBF09942A88398848885F846E847D8410
S1130AA08C849B84AA84B984C884DF80EE80FD8012
S1130AB00C811B81AA81B981CE0FD11D0FB6F89488
S1110AC0DEBF0FBECDBFED010895F894FFCF49
S1130ACE02C0F9A4B0999282F880900D0A50415256
S1130ADE4B494E472D4F5047455354415254007382
S1130AEE6C6167626F6F6D312D3000736C6167627C
S1130AFE6F6F6D312D3100736C6167626F6F6D3185
S1130B0E2D3200504225640D0A00504C25640D0A06
S1050B1E0000D1
S9030000FC
