S014000047495070726F6772616D6D612E737265636A
S11300000C943E000C945B000C945B000C945B001D
S11300100C945B000C945B000C945B000C945B00F0
S11300200C945B000C945B000C945B000C945B00E0
S11300300C945B000C945B000C945B000C945B00D0
S11300400C9471010C945B000C945B000C945B00A9
S11300500C945B000C945B000C945B000C945B00B0
S11300600C945B000C945B000C945B000C945B00A0
S11300700C949F010C945B000C945B0011241FBE34
S1130080CFEFD8E0DEBFCDBF11E0A0E0B1E0ECEDF2
S1130090F3E002C005900D92A432B107D9F722E033
S11300A0A4E2B1E001C01D92A836B207E1F70E94B4
S11300B0FE000C94EC010C9400005298539AE8EC66
S11300C0F0E080818D7F808387E190E09093CD0084
S11300D08093CC00AAECB0E08C9186608C93E9EC20
S11300E0F0E080818B7F80838C91877F8C938C91CF
S11300F08F7E8C93808188618083808180688083F7
S113010008955098519AE0ECF0E080818D7F8083CF
S113011087E190E09093C5008093C400A2ECB0E026
S11301208C9186608C93E1ECF0E080818B7F8083FE
S11301308C91877F8C938C918F7E8C938081886146
S113014080838081806880830895E8ECF0E090816A
S113015095FFFDCF8093CE0008950F931F93CF9307
S1130160DF93FC01808181110AC011C08991882329
S113017071F00E94A500C017D107C1F708C08F0114
S11301800E94A500E8012196005C1F4FEFCFDF918C
S1130190CF911F910F910895A1E8B0E08C918A7FCF
S11301A08C938C9182608C93559A549AE0E8F0E099
S11301B080818E7F80838081826080838C9188613E
S11301C08C9380818068808380818F7B8083808111
S11301D08062808380818F7E80838FEF93E290930F
S11301E087008093860087EE90E090938900809347
S11301F0880090938B0080938A000895579A83E037
S113020084B92898299A0E94CC000E945D000E941B
S113021081000E94CE01A8E8B0E087EE90E011963C
S11302209C938E93EAE8F0E0918380832FEF3FE381
S113023042E0215030404040E1F700C0000083EB31
S113024092E011969C938E939183808385E090E055
S11302505F9A2FEF3FE342E0215030404040E1F706
S113026000C000005F982FEF3FE342E02150304090
S11302704040E1F700C00000019751F78FEF9FE184
S113028021E0815090402040E1F700C000008BE065
S113029091E00E94AD007894C2E080910001813029
S11302A0E1F75F9AC09300016FE171E087EC91E0A0
S11302B00E94D201892B89F35F9A3FEF4FE985E0D1
S11302C0315040408040E1F700C000005F989FEF4C
S11302D02FE935E0915020403040E1F700C00000A4
S11302E0DCCF1F920F920FB60F9211248F939F931E
S11302F0EF93FF9395B183E0892785B980916702D5
S1130300813051F4E0912501F0E0EF5FFE4F8081F0
S113031088B9109267020AC0E0912601F0E0EF5F0D
S1130320FE4F808188B981E080936702FF91EF914D
S11303309F918F910F900FBE0F901F9018951F9251
S11303400F920FB60F9211242F933F938F939F9385
S1130350EF93FF9380912401282F30E09091CE00F9
S1130360F901E953FE4F90839D3051F4F901E953AB
S1130370FE4F10821092240181E08093000103C09B
S11303808F5F80932401FF91EF919F918F913F9113
S11303902F910F900FBE0F901F9018958AE28093B3
S11303A0B8000895FB0151915523A9F0BF01DC0168
S11303B04D9145174111E1F759F4CD010190002009
S11303C049F04D9140154111C9F3FB014111EFCFA3
S10F03D081E090E001970895F894FFCFBD
S11303DC02C0F9A4B0999282F880900D0A5041524F
S11303EC4B494E472D4F504745535441525400747A
S10703FC65737400AD
S9030000FC
