:100000000C943E000C945B000C945B000C945B0021
:100010000C945B000C945B000C945B000C945B00F4
:100020000C945B000C945B000C945B000C945B00E4
:100030000C945B000C945B000C945B000C945B00D4
:100040000C9410010C945B000C945B000C945B000E
:100050000C9492010C945B000C945B000C945B007C
:100060000C945B000C945B000C945B000C945B00A4
:100070000C9463010C945B000C945B0011241FBE74
:10008000CFEFD8E0DEBFCDBF11E0A0E0B1E0EAEEF7
:10009000FFE002C005900D92A235B107D9F722E02A
:1000A000A2E5B1E001C01D92AB31B207E1F70E94B9
:1000B000A6030C94F3070C940000CF93DF93D82F82
:1000C000C62F0E94D7048D2F0E94E7048C2F8095A5
:1000D0000E94E7040E94FD04DF91CF910895529899
:1000E000539AE8ECF0E080818D7F808387E190E097
:1000F0009093CD008093CC00AAECB0E08C91866008
:100100008C93E9ECF0E080818B7F80838C91877FFA
:100110008C938C918F7E8C93808188618083808189
:100120008068808308955098519AE0ECF0E08081D7
:100130008D7F808387E190E09093C5008093C40019
:10014000A2ECB0E08C9186608C93E1ECF0E08081D1
:100150008B7F80838C91877F8C938C918F7E8C9307
:100160008081886180838081806880830895E8EC45
:10017000F0E0908195FFFDCF8093CE0008950F931E
:100180001F93CF93DF93FC01808181110AC011C0BE
:100190008991882371F00E94B700C017D107C1F779
:1001A00008C08F010E94B700E8012196005C1F4F34
:1001B000EFCFDF91CF911F910F910895A1E8B0E0AB
:1001C0008C918A7F8C938C9182608C93559A549AEF
:1001D000E0E8F0E080818E7F808380818260808390
:1001E0008C9188618C9380818068808380818F7BF3
:1001F000808380818062808380818F7E80838FEF87
:1002000093E2909387008093860087EE90E090932E
:1002100089008093880090938B0080938A000895D2
:100220001F920F920FB60F9211248F939F93EF930B
:10023000FF9395B183E0892785B98091580181307A
:1002400051F4E0915601F0E0EF5FFE4F808182B9FA
:10025000109258010AC0E0915701F0E0EF5FFE4FA5
:10026000808182B981E0809358018091FE018F5F87
:100270008093FE018091FE01803429F41092FE01EA
:1002800081E08093FF01FF91EF919F918F910F90FB
:100290000FBE0F901F9018959DEC899F912D1124F2
:1002A000292F269526952695220F322F330F330FAF
:1002B000230F821B80935601969596959695909361
:1002C000570181E008951F920F920FB60F921124EB
:1002D0002F933F938F939F93EF93FF9380915201BE
:1002E000282F30E09091CE00F901E25AFE4F908322
:1002F0009D3051F4F901E25AFE4F108210925201E2
:1003000081E08093000103C08F5F80935201FF91D1
:10031000EF919F918F913F912F910F900FBE0F9072
:100320001F9018951F920F920FB60F9211242F93C2
:100330003F934F935F936F937F938F939F93AF936D
:10034000BF93CF93EF93FF93C091C600C13081F468
:1003500080910102882369F1109201028091540179
:10036000882339F18091540181508093540121C038
:10037000C23069F4809101028130D9F081E080932C
:100380000102809154018F5F8093540112C0C330E9
:1003900081F480910202882369F110920202809117
:1003A0005401823038F1809154018250809354017D
:1003B00021C0C43069F480910202813051F181E0A2
:1003C00080930202809154018E5F8093540121C07A
:1003D000C53081F480910302882369F110920302F1
:1003E00080915401843038F180915401845080937D
:1003F000540121C0C63069F480910302813051F16B
:1004000081E080930302809154018C5F80935401BA
:1004100021C0C73081F480910402882369F11092D1
:10042000040280915401883038F180915401885041
:100430008093540121C0C83069F480910402813056
:1004400051F181E08093040280915401885F809390
:10045000540121C0C93081F480910502882369F1DB
:100460001092050280915401803138F1809154013D
:1004700080518093540121C0C03169F480910502FC
:10048000813051F181E08093050280915401805FB9
:100490008093540121C0C13181F4809106028823E8
:1004A00069F11092060280915401803238F18091F6
:1004B000540180528093540121C0C23169F480916B
:1004C0000602813051F181E080930602809154014F
:1004D000805E8093540121C0C33181F48091070272
:1004E000882379F11092070280915401803448F1F9
:1004F0008091540180548093540123C0C43169F425
:1005000080910702813069F181E080930702809138
:100510005401805C8093540124C0C53191F48091D2
:100520000802882309F4E0C0109208028091540167
:1005300088230CF0D9C080915401805880935401D5
:10054000D3C0C63171F480910802813009F4D2C061
:1005500081E0809308028091540180588093540177
:10056000C9C06091540180E40E945D00C73119F454
:10057000109209020BC0C83121F481E08093090276
:100580000BC0C93119F410920A020BC0C03221F419
:1005900081E080930A020BC0C13219F410920B0261
:1005A0000BC0C23221F481E080930B020BC0C33236
:1005B00019F410920C020BC0C43221F481E0809334
:1005C0000C020BC0C53219F410920D020BC0C632DA
:1005D00021F481E080930D020BC0C53319F4109211
:1005E00012020BC0C63321F481E0809312020BC0CB
:1005F000C73319F4109213020BC0C83321F481E001
:10060000809313020BC0C93319F4109214020BC06B
:10061000C03421F481E0809314020BC0C13419F47A
:10062000109215020BC0C23421F481E080931502B0
:100630000BC0C33419F4109216020BC0C43421F459
:1006400081E0809316020BC0C53419F41092170292
:100650000BC0C63421F481E0809317020BC0C7346D
:1006600019F4109218020BC0C83421F481E0809371
:1006700018020BC0C93419F4109219020BC0C0350E
:1006800021F481E0809319020BC0C13519F4109256
:100690001A020FC0C23521F481E080931A0212C001
:1006A000C33539F487EE90E09093890080938800F9
:1006B00012C0C43539F483EB92E0909389008093A3
:1006C00088001EC0C53539F483EB92E090938B000F
:1006D00080938A0015C0C63599F480E894E0909321
:1006E0008B0080938A000CC06091540180E40E94CA
:1006F0005D0041CF6091540180E40E945D0041CFD4
:10070000FF91EF91CF91BF91AF919F918F917F9189
:100710006F915F914F913F912F910F900FBE0F906E
:100720001F90189584B5826084BD84B58E7F84BD8A
:1007300085B5857F85BD85B5856085BD84E187BD2F
:10074000EEE6F0E08081826080830895CF93DF93AE
:1007500000D01F92CDB7DEB7579A8FEF81B983E0F3
:1007600084B92898299A3C980E94DE000E94930040
:100770000E946F000E94D3040E949203A8E8B0E098
:1007800087EE90E011969C938E93EAE8F0E083EB7D
:1007900092E0918380832FEF3FE342E0215030408D
:1007A0004040E1F700C0000011969C938E9380E8D2
:1007B00094E09183808385E090E05F9AEFEFFFE320
:1007C00022E0E150F0402040E1F700C000005F98D7
:1007D0003FEF4FE3E2E031504040E040E1F700C03E
:1007E0000000019751F7FFEF2FE131E0F150204079
:1007F0003040E1F700C000008BE091E00E94BF00B4
:1008000078940F2EF0E0EF2EF2E0FF2EF02D33243F
:10081000339439826894222421F80F2EF3E46F2E4A
:10082000F1E07F2EF02D0F2EF9E5CF2EF1E0DF2E37
:10083000F02D0F2EFAE4AF2EF1E0BF2EF02D4C2C50
:100840005D2C349B02C0F7013686349902C0F70153
:100850001686359B02C0F7013786359902C0F7012D
:100860001786369B02C0F701308A369902C0F7011D
:10087000108A379B02C0F701318A379902C0F7010D
:10088000118A80910001813011F55F9A2092000158
:100890006FE171E08EE591E00E940105892B11F076
:1008A000109255016BE271E08EE591E00E94010526
:1008B000892B19F0F981F093550167E371E08EE51A
:1008C00091E00E940105892B11F020925501809141
:1008D000FF01882309F4B5CF1092530121E032E0E3
:1008E0003B832A8301E010E08A809B80F4018081B1
:1008F000813099F4809153018F5F809353011F934E
:100900000F937F926F92DF92CF920E941B050F9000
:100910000F900F900F900F900F902A813B812F5FC7
:100920003F4F3B832A83F401808181110EC01F93C6
:100930000F93BF92AF92DF92CF920E941B050F9050
:100940000F900F900F900F900F90842D952D0E9477
:10095000BF008FEF97E40197F1F700C000000F5F31
:100960001F4F0B31110509F0BFCF809153011F922A
:100970008F9384E491E09F938F93DF92CF920E94B4
:100980001B05C6010E94BF001092FF019091530108
:100990008AE1891B0E944C010F900F900F900F90DD
:1009A0000F900F904ECF8AE28093B8000895ECEB41
:1009B000F0E0108284EA808380818823ECF79091B4
:1009C000B900987F81E0983009F080E00895809325
:1009D000BB0084E88093BC00ECEBF0E080818823CE
:1009E000ECF79091B900987F983129F081E090342C
:1009F00019F080E0089581E0089584E98093BC00B7
:100A00000895FB0151915523A9F0BF01DC014D91DF
:100A100045174111E1F759F4CD010190002049F04B
:100A20004D9140154111C9F3FB014111EFCF81E018
:100A300090E001970895AEE0B0E0E1E2F5E00C94BB
:100A4000CA070D891E8986E08C831A8309838FEF7C
:100A50009FE79E838D83AE01475E5F4F6F89788DE0
:100A6000CE0101960E943E052F813885F801E20FE4
:100A7000F31F10822E96E4E00C94E607ACE0B0E0A1
:100A8000E4E4F5E00C94BC077C016B018A01FC01F5
:100A900017821682838181FFBDC1CE0101964C0170
:100AA000F7019381F60193FD859193FF81916F0189
:100AB000882309F4ABC1853239F493FD859193FF06
:100AC00081916F01853229F4B70190E00E942607D9
:100AD000E7CF512C312C20E02032A0F48B3269F08A
:100AE00030F4803259F0833269F420612CC08D32A9
:100AF00039F0803339F4216026C02260246023C09D
:100B0000286021C027FD27C030ED380F3A3078F437
:100B100026FF06C0FAE05F9E300D1124532E13C04D
:100B20008AE0389E300D1124332E20620CC08E32A4
:100B300021F426FD6BC1206406C08C3611F42068B8
:100B400002C0883641F4F60193FD859193FF8191AF
:100B50006F018111C1CF982F9F7D9554933028F458
:100B60000C5F1F4FFFE3F9830DC0833631F08337ED
:100B700071F0833509F05BC022C0F8018081898360
:100B80000E5F1F4F44244394512C540115C038016B
:100B9000F2E06F0E711CF801A080B18026FF03C047
:100BA000652D70E002C06FEF7FEFC5012C870E94BA
:100BB0001B072C0183012C852F77222E17C03801AB
:100BC000F2E06F0E711CF801A080B18026FF03C017
:100BD000652D70E002C06FEF7FEFC5012C870E948A
:100BE00010072C012C852068222E830123FC1BC0BA
:100BF000832D90E048165906B0F4B70180E290E0EA
:100C00000E9426073A94F4CFF50127FC859127FE30
:100C100081915F01B70190E00E94260731103A945C
:100C2000F1E04F1A51084114510471F7E5C08436C0
:100C300011F0893639F5F80127FF07C0608171810D
:100C4000828193810C5F1F4F08C060817181072EE4
:100C5000000C880B990B0E5F1F4F2F76722E97FF9B
:100C600009C090958095709561957F4F8F4F9F4FEC
:100C70002068722E2AE030E0A4010E945E07A82EB0
:100C8000A81844C0853729F42F7EB22E2AE030E020
:100C900025C0F22FF97FBF2E8F36C1F018F48835AA
:100CA00079F0B4C0803719F0883721F0AFC02F2F0A
:100CB0002061B22EB4FE0DC08B2D8460B82E09C009
:100CC00024FF0AC09F2F9660B92E06C028E030E0AE
:100CD00005C020E130E002C020E132E0F801B7FEBB
:100CE00007C060817181828193810C5F1F4F06C0B4
:100CF0006081718180E090E00E5F1F4FA4010E942F
:100D00005E07A82EA818FB2DFF777F2E76FE0BC05E
:100D1000372D3E7FA51450F474FE0AC072FC08C043
:100D2000372D3E7E05C0BA2C372D03C0BA2C01C02A
:100D3000B52C34FF0DC0FE01EA0DF11D808180331A
:100D400011F4397E09C032FF06C0B394B39404C0D5
:100D5000832F867809F0B39433FD13C030FF06C0AB
:100D60005A2CB31418F4530C5B18B32CB31468F456
:100D7000B70180E290E03C870E942607B3943C854F
:100D8000F5CFB31410F43B1801C0312C34FF12C05E
:100D9000B70180E390E03C870E9426073C8532FF44
:100DA00017C031FD03C088E790E002C088E590E0FD
:100DB000B7010CC0832F867859F031FF02C08BE257
:100DC00001C080E237FD8DE2B70190E00E94260766
:100DD000A51438F4B70180E390E00E9426075A94E6
:100DE000F7CFAA94F401EA0DF11D8081B70190E0DC
:100DF0000E942607A110F5CF332009F451CEB70188
:100E000080E290E00E9426073A94F6CFF7018681AF
:100E1000978102C08FEF9FEF2C96E2E10C94D807E8
:100E2000FC010590615070400110D8F780959095B5
:100E30008E0F9F1F0895FC016150704001900110BA
:100E4000D8F7809590958E0F9F1F08950F931F934D
:100E5000CF93DF93FB01238121FD03C08FEF9FEF31
:100E600028C022FF16C04681578124813581421750
:100E7000530744F4A081B1819D012F5F3F4F31831F
:100E800020838C93268137812F5F3F4F37832683C2
:100E900010C0EB01092F182F0084F185E02D099572
:100EA000892BE1F68E819F8101969F838E83812F0E
:100EB000902FDF91CF911F910F910895FA01AA27EA
:100EC000283051F1203181F1E8946F936E7F6E5F8D
:100ED0007F4F8F4F9F4FAF4FB1E03ED0B4E03CD03B
:100EE000670F781F891F9A1FA11D680F791F8A1F1E
:100EF000911DA11D6A0F711D811D911DA11D20D085
:100F000009F468943F912AE0269F11243019305D3E
:100F10003193DEF6CF010895462F4770405D41932F
:100F2000B3E00FD0C9F7F6CF462F4F70405D4A337C
:100F300018F0495D31FD4052419302D0A9F7EACF44
:100F4000B4E0A6959795879577956795BA95C9F773
:100F500000976105710508959B01AC010A2E069466
:100F60005795479537952795BA95C9F7620F731F1F
:100F7000841F951FA01D08952F923F924F925F925C
:100F80006F927F928F929F92AF92BF92CF92DF9299
:100F9000EF92FF920F931F93CF93DF93CDB7DEB7FE
:100FA000CA1BDB0B0FB6F894DEBF0FBECDBF099492
:100FB0002A88398848885F846E847D848C849B84E9
:100FC000AA84B984C884DF80EE80FD800C811B81F7
:100FD000AA81B981CE0FD11D0FB6F894DEBF0FBE26
:0A0FE000CDBFED010895F894FFCF96
:100FEA0002C0F9A4B0999282F880900D0A50415239
:100FFA004B494E472D4F5047455354415254007365
:10100A006C6167626F6F6D312D3000736C6167625E
:10101A006F6F6D312D3100736C6167626F6F6D3167
:10102A002D3200504225640D0A00504C25640D0AE9
:02103A000000B4
:00000001FF
