S014000047495070726F6772616D6D612E737265636A
S11300000C943E000C945B000C945B000C945B001D
S11300100C945B000C945B000C945B000C945B00F0
S11300200C945B000C945B000C945B000C945B00E0
S11300300C945B000C945B000C945B000C945B00D0
S11300400C9410010C945B000C945B000C945B000A
S11300500C9492010C945B000C945B000C945B0078
S11300600C945B000C945B000C945B000C945B00A0
S11300700C9463010C945B000C945B0011241FBE70
S1130080CFEFD8E0DEBFCDBF11E0A0E0B1E0E2E009
S1130090F4E102C005900D92A037B107D9F722E030
S11300A0A0E7B1E001C01D92AD33B207E1F70E94B1
S11300B026050C94FF090C940000CF93DF93D82FEE
S11300C0C62F0E94E3068D2F0E94F3068C2F809585
S11300D00E94F3060E940907DF91CF910895529878
S11300E0539AE8ECF0E080818D7F808387E190E093
S11300F09093CD008093CC00AAECB0E08C91866004
S11301008C93E9ECF0E080818B7F80838C91877FF6
S11301108C938C918F7E8C93808188618083808185
S11301208068808308955098519AE0ECF0E08081D3
S11301308D7F808387E190E09093C5008093C40015
S1130140A2ECB0E08C9186608C93E1ECF0E08081CD
S11301508B7F80838C91877F8C938C918F7E8C9303
S11301608081886180838081806880830895E8EC41
S1130170F0E0908195FFFDCF8093CE0008950F931A
S11301801F93CF93DF93FC01808181110AC011C0BA
S11301908991882371F00E94B700C017D107C1F775
S11301A008C08F010E94B700E8012196005C1F4F30
S11301B0EFCFDF91CF911F910F910895A1E8B0E0A7
S11301C08C918A7F8C938C9182608C93559A549AEB
S11301D0E0E8F0E080818E7F80838081826080838C
S11301E08C9188618C9380818068808380818F7BEF
S11301F0808380818062808380818F7E80838FEF83
S113020093E2909387008093860087EE90E090932A
S113021089008093880090938B0080938A000895CE
S11302201F920F920FB60F9211248F939F93EF9307
S1130230FF9395B183E0892785B980917A01813054
S113024051F4E0917801F0E0EF5FFE4F808182B9D4
S113025010927A010AC0E0917901F0E0EF5FFE4F5D
S1130260808182B981E080937A01809120028F5F3E
S11302708093200280912002803429F4109220027D
S113028081E080932102FF91EF919F918F910F90D4
S11302900FBE0F901F9018959DEC899F912D1124EE
S11302A0292F269526952695220F322F330F330FAB
S11302B0230F821B8093780196959695969590933B
S11302C0790181E008951F920F920FB60F921124C5
S11302D02F933F938F939F93EF93FF93809170019C
S11302E0282F30E09091CE00F901E058FE4F908322
S11302F09D3051F4F901E058FE4F108210927001C4
S113030081E08093000103C08F5F80937001FF91AF
S1130310EF919F918F913F912F910F900FBE0F906E
S11303201F9018951F920F920FB60F9211242F93BE
S11303303F934F935F936F937F938F939F93AF9369
S1130340BF93CF93EF93FF93C091C600C13081F464
S113035080912302882369F1109223028091750110
S1130360882339F18091750181508093750121C0F2
S1130370C23069F4809123028130D9F081E0809306
S11303802302809175018F5F8093750112C0C33081
S113039081F480912402882369F1109224028091CF
S11303A07501823038F18091750182508093750116
S11303B021C0C43069F480912402813051F181E07C
S11303C080932402809175018E5F8093750121C012
S11303D0C53081F480912502882369F110922502A9
S11303E080917501843038F1809175018450809337
S11303F0750121C0C63069F480912502813051F124
S113040081E080932502809175018C5F8093750152
S113041021C0C73081F480912602882369F11092AB
S1130420260280917501883038F1809175018850D9
S11304308093750121C0C83069F48091260281300F
S113044051F181E08093260280917501885F809349
S1130450750121C0C93081F480912702882369F194
S11304601092270280917501803138F180917501D5
S113047080518093750121C0C03169F480912702B5
S1130480813051F181E08093270280917501805F72
S11304908093750121C0C13181F4809128028823A1
S11304A069F11092280280917501803238F18091AF
S11304B0750180528093750121C0C23169F4809125
S11304C02802813051F181E08093280280917501E6
S11304D0805E8093750121C0C33181F4809129022B
S11304E0882379F11092290280917501803448F1B2
S11304F08091750180548093750123C0C43169F4DF
S113050080912902813069F181E0809329028091F0
S11305107501805C8093750124C0C53191F480918C
S11305202A02882309F43CC210922A0280917501A0
S113053088230CF035C28091750180588093750131
S11305402FC2C63171F480912A02813009F42EC27F
S113055081E080932A02809175018058809375010F
S113056025C26091750180E40E945D00C73181F469
S113057080912B02882369F110922B0280917401DF
S1130580882339F18091740181508093740121C0D2
S1130590C83169F480912B02813051F181E080935C
S11305A02B02809174018F5F8093740121C0C93143
S11305B081F480912C02882369F110922C0280919D
S11305C07401823038F180917401825080937401F7
S11305D021C0C03269F480912C02813051F181E054
S11305E080932C02809174018E5F8093740121C0EA
S11305F0C13281F480912D02882369F110922D0279
S113060080917401843038F1809174018450809316
S1130610740121C0C23269F480912D02813051F1FC
S113062081E080932D02809174018C5F809374012A
S113063021C0C33281F480912E02882379F1109273
S11306402E0280917401883048F1809174018850A1
S11306508093740123C0C43269F480912E028130E6
S113066069F181E080932E0280917401885F809308
S1130670740124C0C53291F480912F02882309F4B7
S11306809BC110922F0280917401803108F494C1AF
S1130690809174018051809374018EC1C63271F4CB
S11306A080912F02813009F48DC181E080932F0263
S11306B080917401805F8093740184C1609174019E
S11306C082E40E945D00C53381F480913402882362
S11306D069F11092340280917301823038F1809173
S11306E0730182508093730121C0C63369F48091F1
S11306F03402813051F181E080933402809173019E
S11307008E5F8093730121C0C73381F480913502D9
S1130710882369F11092350280917301843038F195
S11307208091730184508093730121C0C83369F4AC
S113073080913502813051F181E0809335028091BE
S113074073018C5F8093730121C0C93381F480915C
S11307503602882369F11092360280917301883041
S113076038F18091730188508093730121C0C034A3
S113077069F480913602813051F181E08093360230
S113078080917301885F8093730121C0C13481F427
S113079080913702882369F11092370280917301A6
S11307A0803138F18091730180518093730121C0AD
S11307B0C23469F480913702813051F181E0809331
S11307C0370280917301805F8093730121C0C33429
S11307D081F480913802882369F110923802809163
S11307E07301803238F180917301805280937301D8
S11307F021C0C43469F480913802813051F181E020
S11308008093380280917301805E8093730121C0CC
S1130810C53481F480913902882379F11092390228
S113082080917301803448F18091730180548093E6
S1130830730123C0C63469F480913902813069F1AF
S113084081E08093390280917301805C809373010D
S113085024C0C73491F480913A02882309F4B8C0C3
S113086010923A028091730188230CF0B1C08091F8
S11308707301805880937301ABC0C83471F48091C4
S11308803A02813009F4AAC081E080933A0280914F
S11308907301805880937301A1C06091730184E453
S11308A00E945D00C93481F480913B02882379F170
S11308B010923B0280917201882349F18091720168
S11308C081508093720123C0C03569F480913B024A
S11308D0813069F181E080933B02809172018F5FE6
S11308E08093720124C0C13591F480913C02882325
S11308F009F47AC010923C0280917201823008F4AB
S113090073C0809172018250809372016DC0C235B0
S113091071F480913C02813009F46CC081E08093D1
S11309203C02809172018E5F8093720163C060917A
S1130930720186E40E945D00C33559F48091770109
S1130940811121C087EE90E0909389008093880004
S11309501AC0C43559F480917701811151C083EBD9
S113096092E090938900809388004AC0C53559F479
S113097080917601811144C083EB92E090938B00C7
S113098080938A003DC0C635D9F5809176018111E6
S113099037C080E894E090938B0080938A0030C045
S11309A06091750180E40E945D00F2CD6091750153
S11309B080E40E945D00FBCD6091740182E40E949A
S11309C05D0093CE6091740182E40E945D009CCE30
S11309D06091730184E40E945D0076CF609173019D
S11309E084E40E945D007FCF6091720186E40E94DE
S11309F05D00AFCF6091720186E40E945D00B6CFC6
S1130A00FF91EF91CF91BF91AF919F918F917F9182
S1130A106F915F914F913F912F910F900FBE0F9067
S1130A201F90189584B5826084BD84B58E7F84BD83
S1130A3085B5857F85BD85B5856085BD84E187BD28
S1130A40EEE6F0E08081826080830895579A8FEF0C
S1130A5081B983E084B92898299A3C980E94DE00E1
S1130A600E9493000E946F000E94DF060E941205FC
S1130A70A8E8B0E087EE90E011969C938E93EAE8A4
S1130A80F0E083EB92E0918380832FEF3FE342E039
S1130A90215030404040E1F700C0000011969C9383
S1130AA08E9380E894E09183808385E090E05F9A60
S1130AB0EFEFFFE322E0E150F0402040E1F700C017
S1130AC000005F983FEF4FE3E2E031504040E040E8
S1130AD0E1F700C00000019751F7FFEF2FE131E08B
S1130AE0F15020403040E1F700C000008BE091E07D
S1130AF00E94BF0078940F2EF2E2EF2EF2E0FF2E58
S1130B00F02D0F2EF7EE4F2E512CF02D0F2EF3EB70
S1130B102F2EF2E03F2EF02D0F2EF1E66F2EF1E096
S1130B207F2EF02DC1E0D2E0349910C0F701868504
S1130B30882309F438C1168680917401803208F440
S1130B4032C180917401805280937401349B0BC034
S1130B50F7018685813039F0F701C68780917401E9
S1130B60805E80937401359B0BC0F70187858130CB
S1130B7009F41CC1C78780917401805C809374015F
S1130B8035990FC0F7018785882359F0F701178637
S1130B9080917401803428F0809174018054809392
S1130BA07401369B0BC0F7018089813009F401C1BF
S1130BB0C08B8091740180588093740136990FC062
S1130BC0F7018089882359F0F701108A8091740114
S1130BD088232CF480917401805880937401379B8E
S1130BE00BC0F7018189813009F4E6C0C18B809183
S1130BF073018F5F8093730137990FC0F701818967
S1130C00882359F0F701118A80917301882329F010
S1130C108091730181508093730180910001813030
S1130C2009F051C05F9AD09300016FE171E080E850
S1130C3091E00E940D07892B11F0109277016AE26E
S1130C4071E080E891E00E940D07892B31F0C09398
S1130C507701E8E8F0E03182208265E371E080E822
S1130C6091E00E940D07892B31F0D0937701E8E8D9
S1130C70F0E05182408260E471E080E891E00E94FB
S1130C800D07892B11F0109276016BE471E080E876
S1130C9091E00E940D07892B31F0C0937601EAE8B8
S1130CA0F0E03182208266E571E080E891E00E9404
S1130CB00D07892B31F0D0937601EAE8F0E05182F8
S1130CC04082D093000180912102882309F42CCF23
S1130CD010927101C3E2D2E001E010E00F2EFBE7B5
S1130CE0CF2EF1E0DF2EF02D0F2EF8E6AF2EF1E03F
S1130CF0BF2EF02D4E018881813099F480917101CD
S1130D008F5F809371011F930F937F926F92DF9295
S1130D10CF920E9427070F900F900F900F900F9083
S1130D200F902196F401808181110EC01F930F93BF
S1130D30BF92AF92DF92CF920E9427070F900F903D
S1130D400F900F900F900F90C6010E94BF008FEF7D
S1130D5097E40197F1F700C000000F5F1F4F0B31BC
S1130D60110541F6809171011F928F9382E691E003
S1130D709F938F938BE791E09F938F930E94270714
S1130D808BE791E00E94BF001092210290917101C3
S1130D908AE1891B0E944C010F900F900F900F90D5
S1130DA00F900F90BFCE3499D7CEDDCE359BEECECB
S1130DB0F8CE369B09CF13CF379B24CF2ECF8AE2B0
S1130DC08093B8000895ECEBF0E0108284EA80830D
S1130DD080818823ECF79091B900987F81E0983066
S1130DE009F080E008958093BB0084E88093BC0000
S1130DF0ECEBF0E080818823ECF79091B900987FC8
S1130E00983129F081E0903419F080E0089581E070
S1130E10089584E98093BC000895FB015191552302
S1130E20A9F0BF01DC014D9145174111E1F759F4D7
S1130E30CD010190002049F04D9140154111C9F3B5
S1130E40FB014111EFCF81E090E001970895AEE0FE
S1130E50B0E0EDE2F7E00C94D6090D891E8986E036
S1130E608C831A8309838FEF9FE79E838D83AE0162
S1130E70475E5F4F6F89788DCE0101960E944A07C5
S1130E802F813885F801E20FF31F10822E96E4E0DB
S1130E900C94F209ACE0B0E0E0E5F7E00C94C8098A
S1130EA07C016B018A01FC0117821682838181FF18
S1130EB0BDC1CE0101964C01F7019381F60193FD6A
S1130EC0859193FF81916F01882309F4ABC1853229
S1130ED039F493FD859193FF81916F01853229F453
S1130EE0B70190E00E943209E7CF512C312C20E069
S1130EF02032A0F48B3269F030F4803259F083321E
S1130F0069F420612CC08D3239F0803339F42160CA
S1130F1026C02260246023C0286021C027FD27C08A
S1130F2030ED380F3A3078F426FF06C0FAE05F9EC1
S1130F30300D1124532E13C08AE0389E300D112435
S1130F40332E20620CC08E3221F426FD6BC1206446
S1130F5006C08C3611F4206802C0883641F4F601CC
S1130F6093FD859193FF81916F018111C1CF982FDA
S1130F709F7D9554933028F40C5F1F4FFFE3F98352
S1130F800DC0833631F0833771F0833509F05BC0CF
S1130F9022C0F801808189830E5F1F4F442443944B
S1130FA0512C540115C03801F2E06F0E711CF80188
S1130FB0A080B18026FF03C0652D70E002C06FEFF2
S1130FC07FEFC5012C870E9427092C0183012C8502
S1130FD02F77222E17C03801F2E06F0E711CF80132
S1130FE0A080B18026FF03C0652D70E002C06FEFC2
S1130FF07FEFC5012C870E941C092C012C852068D9
S1131000222E830123FC1BC0832D90E04816590631
S1131010B0F4B70180E290E00E9432093A94F4CF30
S1131020F50127FC859127FE81915F01B70190E0CE
S11310300E94320931103A94F1E04F1A51084114D8
S1131040510471F7E5C0843611F0893639F5F80199
S113105027FF07C060817181828193810C5F1F4FDC
S113106008C060817181072E000C880B990B0E5FFC
S11310701F4F2F76722E97FF09C09095809570951B
S113108061957F4F8F4F9F4F2068722E2AE030E08A
S1131090A4010E946A09A82EA81844C0853729F41F
S11310A02F7EB22E2AE030E025C0F22FF97FBF2E2A
S11310B08F36C1F018F4883579F0B4C0803719F050
S11310C0883721F0AFC02F2F2061B22EB4FE0DC09F
S11310D08B2D8460B82E09C024FF0AC09F2F966010
S11310E0B92E06C028E030E005C020E130E002C09F
S11310F020E132E0F801B7FE07C06081718182818E
S113110093810C5F1F4F06C06081718180E090E085
S11311100E5F1F4FA4010E946A09A82EA818FB2D78
S1131120FF777F2E76FE0BC0372D3E7FA51450F43B
S113113074FE0AC072FC08C0372D3E7E05C0BA2C6E
S1131140372D03C0BA2C01C0B52C34FF0DC0FE01ED
S1131150EA0DF11D8081803311F4397E09C032FF1C
S113116006C0B394B39404C0832F867809F0B39473
S113117033FD13C030FF06C05A2CB31418F4530CBB
S11311805B18B32CB31468F4B70180E290E03C8799
S11311900E943209B3943C85F5CFB31410F43B1884
S11311A001C0312C34FF12C0B70180E390E03C87CA
S11311B00E9432093C8532FF17C031FD03C088E725
S11311C090E002C088E590E0B7010CC0832F8678D8
S11311D059F031FF02C08BE201C080E237FD8DE29D
S11311E0B70190E00E943209A51438F4B70180E3F6
S11311F090E00E9432095A94F7CFAA94F401EA0DC0
S1131200F11D8081B70190E00E943209A110F5CF51
S1131210332009F451CEB70180E290E00E943209F4
S11312203A94F6CFF7018681978102C08FEF9FEF42
S11312302C96E2E10C94E409FC01059061507040A5
S11312400110D8F7809590958E0F9F1F0895FC018B
S11312506150704001900110D8F7809590958E0FE1
S11312609F1F08950F931F93CF93DF93FB01238157
S113127021FD03C08FEF9FEF28C022FF16C04681D7
S11312805781248135814217530744F4A081B181E9
S11312909D012F5F3F4F318320838C9326813781BB
S11312A02F5F3F4F3783268310C0EB01092F182F80
S11312B00084F185E02D0995892BE1F68E819F81CB
S11312C001969F838E83812F902FDF91CF911F9161
S11312D00F910895FA01AA27283051F1203181F1A4
S11312E0E8946F936E7F6E5F7F4F8F4F9F4FAF4F2A
S11312F0B1E03ED0B4E03CD0670F781F891F9A1F3D
S1131300A11D680F791F8A1F911DA11D6A0F711DF0
S1131310811D911DA11D20D009F468943F912AE0FC
S1131320269F11243019305D3193DEF6CF010895E4
S1131330462F4770405D4193B3E00FD0C9F7F6CF15
S1131340462F4F70405D4A3318F0495D31FD4052DD
S1131350419302D0A9F7EACFB4E0A6959795879573
S113136077956795BA95C9F7009761057105089552
S11313709B01AC010A2E06945795479537952795FE
S1131380BA95C9F7620F731F841F951FA01D089596
S11313902F923F924F925F926F927F928F929F9281
S11313A0AF92BF92CF92DF92EF92FF920F931F936F
S11313B0CF93DF93CDB7DEB7CA1BDB0B0FB6F89420
S11313C0DEBF0FBECDBF09942A88398848885F8460
S11313D06E847D848C849B84AA84B984C884DF80D1
S11313E0EE80FD800C811B81AA81B981CE0FD11DB5
S11313F00FB6F894DEBF0FBECDBFED010895F8948B
S1051400FFCF18
S113140202C0F9A4B0999282F880900D0A50415218
S11314124B494E472D4F5047455354415254007344
S11314226C6167626F6F6D313000736C6167626FFC
S11314326F6D313100736C6167626F6F6D313200B1
S1131442736C6167626F6F6D323000736C616762D7
S11314526F6F6D323100736C6167626F6F6D323220
S113146200504225640D0A00504C25640D0A000008
S9030000FC
