:100000000C943E000C945B000C945B000C945B0021
:100010000C945B000C945B000C945B000C945B00F4
:100020000C945B000C945B000C945B000C945B00E4
:100030000C945B000C945B000C945B000C945B00D4
:100040000C9410010C945B000C945B000C945B000E
:100050000C94DD020C945B000C945B000C945B0030
:100060000C945B000C945B000C945B000C945B00A4
:100070000C94AE020C945B000C945B0011241FBE28
:10008000CFEFD8E0DEBFCDBF11E0A0E0B1E0E6EAFF
:10009000FEE002C005900D92A637B107D9F722E025
:1000A000A6E7B1E001C01D92AF3DB207E1F70E94A3
:1000B00063010C9451070C940000CF93DF93D82F69
:1000C000C62F0E9435048D2F0E9445048C2F8095E9
:1000D0000E9445040E945B04DF91CF9108955298DD
:1000E000539AE8ECF0E080818D7F808387E190E097
:1000F0009093CD008093CC00AAECB0E08C91866008
:100100008C93E9ECF0E080818B7F80838C91877FFA
:100110008C938C918F7E8C93808188618083808189
:100120008068808308955098519AE0ECF0E08081D7
:100130008D7F808387E190E09093C5008093C40019
:10014000A2ECB0E08C9186608C93E1ECF0E08081D1
:100150008B7F80838C91877F8C938C918F7E8C9307
:100160008081886180838081806880830895E8EC45
:10017000F0E0908195FFFDCF8093CE0008950F931E
:100180001F93CF93DF93FC01808181110AC011C0BE
:100190008991882371F00E94B700C017D107C1F779
:1001A00008C08F010E94B700E8012196005C1F4F34
:1001B000EFCFDF91CF911F910F910895A1E8B0E0AB
:1001C0008C918A7F8C938C9182608C93559A549AEF
:1001D000E0E8F0E080818E7F808380818260808390
:1001E0008C9188618C9380818068808380818F7BF3
:1001F000808380818062808380818F7E80838FEF87
:1002000093E2909387008093860087EE90E090932E
:1002100089008093880090938B0080938A000895D2
:100220001F920F920FB60F9211248F939F93EF930B
:10023000FF9395B183E0892785B98091C102813010
:1002400051F4E0917A01F0E0EE5FFE4F808182B9D7
:100250001092C1020AC0E0917B01F0E0EE5FFE4F18
:10026000808182B981E08093C1028091C2028F5F58
:100270008093C2028091C202803429F41092C2029B
:1002800081E08093DE02FF91EF919F918F910F901B
:100290000FBE0F901F9018959DEC899F912D1124F2
:1002A000292F269526952695220F322F330F330FAF
:1002B000230F821B80937A0196959695969590933D
:1002C0007B0181E00895CF93DF9300D01F92CDB7DB
:1002D000DEB7579A8FEF81B983E084B92898299ABD
:1002E0003C980E94DE000E946F000E9493000E94D2
:1002F0003104A8E8B0E087EE90E011969C938E93CD
:10030000EAE8F0E083EB92E0918380832FEF3FE314
:1003100042E0215030404040E1F700C0000011961B
:100320009C938E9380E894E09183808385E090E0B5
:100330005F9AEFEFFFE322E0E150F0402040E1F769
:1003400000C000005F983FEF4FE3E2E031504040D3
:10035000E040E1F700C00000019751F7FFEF2FE107
:1003600031E0F15020403040E1F700C000008CE067
:1003700091E00E94BF0078940F2EF3ECEF2EF2E094
:10038000FF2EF02D3324339439826894222421F8EF
:100390000F2EF8E66F2EF1E07F2EF02D0F2EFCE1F0
:1003A000CF2EF2E0DF2EF02D0F2EFFE6AF2EF1E084
:1003B000BF2EF02D4C2C5D2C349B02C0F7013686ED
:1003C000349902C0F7011686359B02C0F7013786C3
:1003D000359902C0F7011786369B02C0F701308AB3
:1003E000369902C0F701108A379B02C0F701318AA3
:1003F000379902C0F701118A80910001813009F01C
:1004000041C05F9A2092000160E271E081E292E0D7
:100410000E945F04892B11F0109279016CE271E067
:1004200081E292E00E945F04892B19F0F981F09338
:10043000790168E371E081E292E00E945F04892B18
:1004400011F02092790164E471E081E292E00E946F
:100450005F04892B11F01092780160E571E081E270
:1004600092E00E945F04892B19F029812093780182
:100470006CE571E081E292E00E945F04892B11F04B
:10048000209278018091DE02882309F495CF1092A2
:10049000770184EC92E09B838A8301E010E08A80FC
:1004A0009B80F4018081813099F4809177018F5F86
:1004B000809377011F930F937F926F92DF92CF9279
:1004C0000E9479040F900F900F900F900F900F9053
:1004D0002A813B812F5F3F4F3B832A83F401808138
:1004E00081110EC01F930F93BF92AF92DF92CF92F4
:1004F0000E9479040F900F900F900F900F900F9023
:10050000842D952D0E94BF008FEF97E40197F1F79E
:1005100000C000000F5F1F4F0B31110509F0BFCF66
:10052000809177011F928F9389E691E09F938F933B
:10053000DF92CF920E947904C6010E94BF00109200
:10054000DE02909177018AE1891B0E944C010F9095
:100550000F900F900F900F900F902ECF1F920F9231
:100560000FB60F9211242F933F938F939F93EF9386
:10057000FF9380917601282F30E09091CE00F90111
:10058000EF5DFD4F90839D3051F4F901EF5DFD4F1C
:1005900010821092760181E08093000103C08F5F8A
:1005A00080937601FF91EF919F918F913F912F91D1
:1005B0000F900FBE0F901F9018951F920F920FB6BD
:1005C0000F9211242F933F934F935F936F937F93D9
:1005D0008F939F93AF93BF93CF93EF93FF93C0916C
:1005E000C600C13041F41092C402809101018F5FB6
:1005F0008093010110C0C23049F481E08093C402AD
:10060000809101018150809301010BC0C33019F426
:100610001092C5020BC0C43021F481E08093C50262
:100620000BC0C53019F41092C6020BC0C63021F4BD
:1006300081E08093C6020BC0C73019F41092C70244
:100640000BC0C83021F481E08093C7020BC0C930D1
:1006500019F41092C8020BC0C03121F481E08093DC
:10066000C8020BC0C13119F41092C9020BC0C231CB
:1006700021F481E08093C9020BC0C33119F41092B8
:10068000CA0210C0C43121F481E08093CA0215C0AF
:10069000C53141F41092CB026091010180E40E94C7
:1006A0005D0015C0C63149F481E08093CB026091B2
:1006B000010180E40E945D0010C06091010180E4AE
:1006C0000E945D00C73119F41092CC020BC0C831F2
:1006D00021F481E08093CC020BC0C93119F410924F
:1006E000CD020BC0C03221F481E08093CD020BC05B
:1006F000C13219F41092CE020BC0C23221F481E053
:100700008093CE020BC0C33219F41092CF020BC0FB
:10071000C43221F481E08093CF020BC0C53219F4BA
:100720001092D0020BC0C63221F481E08093D00237
:100730000BC0C53319F41092D5020BC0C63321F497
:1007400081E08093D5020BC0C73319F41092D60212
:100750000BC0C83321F481E08093D6020BC0C933AB
:1007600019F41092D7020BC0C03421F481E08093B9
:10077000D7020BC0C13419F41092D8020BC0C23496
:1007800021F481E08093D8020BC0C33419F4109295
:10079000D9020BC0C43421F481E08093D9020BC08C
:1007A000C53419F41092DA020BC0C63421F481E08A
:1007B0008093DA020BC0C73419F41092DB020BC02D
:1007C000C83421F481E08093DB020BC0C93419F4F2
:1007D0001092DC020BC0C03521F481E08093DC0272
:1007E0000BC0C13519F41092DD020FC0C23521F4DF
:1007F00081E08093DD0212C0C33539F487EE90E0CA
:10080000909389008093880012C0C43539F483EB3B
:1008100092E0909389008093880011C0C53539F427
:1008200083EB92E090938B0080938A0008C0C635DA
:1008300031F480E894E090938B0080938A00FF91DC
:10084000EF91CF91BF91AF919F918F917F916F91D8
:100850005F914F913F912F910F900FBE0F901F907E
:1008600018958AE28093B8000895ECEBF0E01082CE
:1008700084EA808380818823ECF79091B900987F87
:1008800081E0983009F080E008958093BB0084E80F
:100890008093BC00ECEBF0E080818823ECF7909132
:1008A000B900987F983129F081E0903419F080E008
:1008B000089581E0089584E98093BC000895FB01C8
:1008C00051915523A9F0BF01DC014D91451741110C
:1008D000E1F759F4CD010190002049F04D91401508
:1008E0004111C9F3FB014111EFCF81E090E0019785
:1008F0000895AEE0B0E0EFE7F4E00C9428070D892E
:100900001E8986E08C831A8309838FEF9FE79E837D
:100910008D83AE01475E5F4F6F89788DCE01019662
:100920000E949C042F813885F801E20FF31F10828A
:100930002E96E4E00C944407ACE0B0E0E2EAF4E088
:100940000C941A077C016B018A01FC011782168244
:10095000838181FFBDC1CE0101964C01F7019381D6
:10096000F60193FD859193FF81916F01882309F42E
:10097000ABC1853239F493FD859193FF81916F016D
:10098000853229F4B70190E00E948406E7CF512C0C
:10099000312C20E02032A0F48B3269F030F4803228
:1009A00059F0833269F420612CC08D3239F08033E4
:1009B00039F4216026C02260246023C0286021C051
:1009C00027FD27C030ED380F3A3078F426FF06C0F7
:1009D000FAE05F9E300D1124532E13C08AE0389E3A
:1009E000300D1124332E20620CC08E3221F426FDEE
:1009F0006BC1206406C08C3611F4206802C08836B2
:100A000041F4F60193FD859193FF81916F0181116E
:100A1000C1CF982F9F7D9554933028F40C5F1F4FC2
:100A2000FFE3F9830DC0833631F0833771F08335EE
:100A300009F05BC022C0F801808189830E5F1F4FDF
:100A400044244394512C540115C03801F2E06F0E38
:100A5000711CF801A080B18026FF03C0652D70E0F5
:100A600002C06FEF7FEFC5012C870E9479062C0131
:100A700083012C852F77222E17C03801F2E06F0EEC
:100A8000711CF801A080B18026FF03C0652D70E0C5
:100A900002C06FEF7FEFC5012C870E946E062C010C
:100AA0002C852068222E830123FC1BC0832D90E01F
:100AB00048165906B0F4B70180E290E00E9484061F
:100AC0003A94F4CFF50127FC859127FE81915F01CF
:100AD000B70190E00E94840631103A94F1E04F1A79
:100AE00051084114510471F7E5C0843611F089367C
:100AF00039F5F80127FF07C06081718182819381F8
:100B00000C5F1F4F08C060817181072E000C880B9D
:100B1000990B0E5F1F4F2F76722E97FF09C090958D
:100B20008095709561957F4F8F4F9F4F2068722EF3
:100B30002AE030E0A4010E94BC06A82EA81844C0F8
:100B4000853729F42F7EB22E2AE030E025C0F22F1F
:100B5000F97FBF2E8F36C1F018F4883579F0B4C014
:100B6000803719F0883721F0AFC02F2F2061B22EC7
:100B7000B4FE0DC08B2D8460B82E09C024FF0AC0BE
:100B80009F2F9660B92E06C028E030E005C020E116
:100B900030E002C020E132E0F801B7FE07C060811A
:100BA0007181828193810C5F1F4F06C060817181CA
:100BB00080E090E00E5F1F4FA4010E94BC06A82EAB
:100BC000A818FB2DFF777F2E76FE0BC0372D3E7FBA
:100BD000A51450F474FE0AC072FC08C0372D3E7E86
:100BE00005C0BA2C372D03C0BA2C01C0B52C34FF78
:100BF0000DC0FE01EA0DF11D8081803311F4397EB4
:100C000009C032FF06C0B394B39404C0832F867822
:100C100009F0B39433FD13C030FF06C05A2CB3144F
:100C200018F4530C5B18B32CB31468F4B70180E2CA
:100C300090E03C870E948406B3943C85F5CFB314C2
:100C400010F43B1801C0312C34FF12C0B70180E30F
:100C500090E03C870E9484063C8532FF17C031FD3E
:100C600003C088E790E002C088E590E0B7010CC0BF
:100C7000832F867859F031FF02C08BE201C080E2F9
:100C800037FD8DE2B70190E00E948406A51438F488
:100C9000B70180E390E00E9484065A94F7CFAA94AB
:100CA000F401EA0DF11D8081B70190E00E948406F5
:100CB000A110F5CF332009F451CEB70180E290E0C6
:100CC0000E9484063A94F6CFF7018681978102C08C
:100CD0008FEF9FEF2C96E2E10C943607FC01059014
:100CE000615070400110D8F7809590958E0F9F1F2E
:100CF0000895FC016150704001900110D8F7809573
:100D000090958E0F9F1F08950F931F93CF93DF939E
:100D1000FB01238121FD03C08FEF9FEF28C022FF3D
:100D200016C046815781248135814217530744F408
:100D3000A081B1819D012F5F3F4F318320838C9330
:100D4000268137812F5F3F4F3783268310C0EB0109
:100D5000092F182F0084F185E02D0995892BE1F6E4
:100D60008E819F8101969F838E83812F902FDF91AB
:100D7000CF911F910F910895FA01AA27283051F1C0
:100D8000203181F1E8946F936E7F6E5F7F4F8F4FBC
:100D90009F4FAF4FB1E03ED0B4E03CD0670F781F1B
:100DA000891F9A1FA11D680F791F8A1F911DA11D00
:100DB0006A0F711D811D911DA11D20D009F4689439
:100DC0003F912AE0269F11243019305D3193DEF6E1
:100DD000CF010895462F4770405D4193B3E00FD097
:100DE000C9F7F6CF462F4F70405D4A3318F0495D82
:100DF00031FD4052419302D0A9F7EACFB4E0A69565
:100E00009795879577956795BA95C9F70097610586
:100E1000710508959B01AC010A2E069457954795DC
:100E200037952795BA95C9F7620F731F841F951FD1
:100E3000A01D08952F923F924F925F926F927F92E2
:100E40008F929F92AF92BF92CF92DF92EF92FF92DA
:100E50000F931F93CF93DF93CDB7DEB7CA1BDB0B86
:100E60000FB6F894DEBF0FBECDBF09942A8839882B
:100E700048885F846E847D848C849B84AA84B98432
:100E8000C884DF80EE80FD800C811B81AA81B9813E
:100E9000CE0FD11D0FB6F894DEBF0FBECDBFED0152
:060EA0000895F894FFCF55
:100EA6000201C0F9A4B0999282F880900D0A5041CF
:100EB600524B494E472D4F504745535441525400CB
:100EC600736C6167626F6F6D312D3000736C616793
:100ED600626F6F6D312D3100736C6167626F6F6D7C
:100EE600312D3200736C6167626F6F6D322D300089
:100EF600736C6167626F6F6D322D3100736C616761
:100F0600626F6F6D322D3200504225640D0A00501B
:060F16004C25640D0A00E9
:00000001FF
