S014000047495070726F6772616D6D612E737265636A
S11300000C943E000C945B000C945B000C945B001D
S11300100C945B000C945B000C945B000C945B00F0
S11300200C945B000C945B000C945B000C945B00E0
S11300300C945B000C945B000C945B000C945B00D0
S11300400C9410010C945B000C945B000C945B000A
S11300500C9492010C945B000C945B000C945B0078
S11300600C945B000C945B000C945B000C945B00A0
S11300700C9463010C945B000C945B0011241FBE70
S1130080CFEFD8E0DEBFCDBF11E0A0E0B1E0E4E9FE
S1130090F3E102C005900D92A235B107D9F722E031
S11300A0A2E5B1E001C01D92AE31B207E1F70E94B2
S11300B016050C94C8090C940000CF93DF93D82F35
S11300C0C62F0E94AC068D2F0E94BC068C2F8095F3
S11300D00E94BC060E94D206DF91CF9108955298E7
S11300E0539AE8ECF0E080818D7F808387E190E093
S11300F09093CD008093CC00AAECB0E08C91866004
S11301008C93E9ECF0E080818B7F80838C91877FF6
S11301108C938C918F7E8C93808188618083808185
S11301208068808308955098519AE0ECF0E08081D3
S11301308D7F808387E190E09093C5008093C40015
S1130140A2ECB0E08C9186608C93E1ECF0E08081CD
S11301508B7F80838C91877F8C938C918F7E8C9303
S11301608081886180838081806880830895E8EC41
S1130170F0E0908195FFFDCF8093CE0008950F931A
S11301801F93CF93DF93FC01808181110AC011C0BA
S11301908991882371F00E94B700C017D107C1F775
S11301A008C08F010E94B700E8012196005C1F4F30
S11301B0EFCFDF91CF911F910F910895A1E8B0E0A7
S11301C08C918A7F8C938C9182608C93559A549AEB
S11301D0E0E8F0E080818E7F80838081826080838C
S11301E08C9188618C9380818068808380818F7BEF
S11301F0808380818062808380818F7E80838FEF83
S113020093E2909387008093860087EE90E090932A
S113021089008093880090938B0080938A000895CE
S11302201F920F920FB60F9211248F939F93EF9307
S1130230FF9395B183E0892785B980915B01813073
S113024051F4E0915901F0E0EF5FFE4F808182B9F3
S113025010925B010AC0E0915A01F0E0EF5FFE4F9B
S1130260808182B981E080935B01809101028F5F7C
S11302708093010280910102803429F410920102DA
S113028081E080930202FF91EF919F918F910F90F3
S11302900FBE0F901F9018959DEC899F912D1124EE
S11302A0292F269526952695220F322F330F330FAB
S11302B0230F821B8093590196959695969590935A
S11302C05A0181E008951F920F920FB60F921124E4
S11302D02F933F938F939F93EF93FF9380915201BA
S11302E0282F30E09091CE00F901EF59FE4F908312
S11302F09D3051F4F901EF59FE4F108210925201D2
S113030081E08093000103C08F5F80935201FF91CD
S1130310EF919F918F913F912F910F900FBE0F906E
S11303201F9018951F920F920FB60F9211242F93BE
S11303303F934F935F936F937F938F939F93AF9369
S1130340BF93CF93EF93FF93C091C600C13081F464
S113035080910402882369F110920402809157016C
S1130360882339F18091570181508093570121C02E
S1130370C23069F4809104028130D9F081E0809325
S11303800402809157018F5F8093570112C0C330DC
S113039081F480910502882369F11092050280910D
S11303A05701823038F18091570182508093570170
S11303B021C0C43069F480910502813051F181E09B
S11303C080930502809157018E5F8093570121C06D
S11303D0C53081F480910602882369F110920602E7
S11303E080915701843038F1809157018450809373
S11303F0570121C0C63069F480910602813051F161
S113040081E080930602809157018C5F80935701AD
S113041021C0C73081F480910702882369F11092CA
S1130420070280915701883038F180915701885034
S11304308093570121C0C83069F48091070281304C
S113044051F181E08093070280915701885F809386
S1130450570121C0C93081F480910802882369F1D1
S11304601092080280915701803138F18091570130
S113047080518093570121C0C03169F480910802F2
S1130480813051F181E08093080280915701805FAF
S11304908093570121C0C13181F4809109028823DE
S11304A069F11092090280915701803238F18091EC
S11304B0570180528093570121C0C23169F4809161
S11304C00902813051F181E0809309028091570142
S11304D0805E8093570121C0C33181F480910A0268
S11304E0882379F110920A0280915701803448F1EF
S11304F08091570180548093570123C0C43169F41B
S113050080910A02813069F181E080930A0280912E
S11305105701805C8093570124C0C53191F48091C8
S11305200B02882309F42CC210920B02809157010C
S113053088230CF025C2809157018058809357017D
S11305401FC2C63171F480910B02813009F41EC2BE
S113055081E080930B02809157018058809357016A
S113056015C26091570180E40E945D00C73181F497
S113057080910C02882369F110920C02809156013B
S1130580882339F18091560181508093560121C00E
S1130590C83169F480910C02813051F181E080937B
S11305A00C02809156018F5F8093560121C0C9319E
S11305B081F480910D02882369F110920D028091DB
S11305C05601823038F18091560182508093560151
S11305D021C0C03269F480910D02813051F181E073
S11305E080930D02809156018E5F8093560121C045
S11305F0C13281F480910E02882369F110920E02B7
S113060080915601843038F1809156018450809352
S1130610560121C0C23269F480910E02813051F139
S113062081E080930E02809156018C5F8093560185
S113063021C0C33281F480910F02882379F1109292
S11306400F0280915601883048F1809156018850FC
S11306508093560123C0C43269F480910F02813023
S113066069F181E080930F0280915601885F809345
S1130670560124C0C53291F480911002882309F4F4
S11306808BC11092100280915601803108F484C10C
S1130690809156018051809356017EC1C63271F417
S11306A080911002813009F47DC181E080931002B1
S11306B080915601805F8093560174C16091560108
S11306C082E40E945D00C53381F480911502882381
S11306D069F11092150280915501882339F18091B6
S11306E0550181508093550121C0C63369F480912E
S11306F01502813051F181E08093150280915501FA
S11307008E5F8093550121C0C73381F48091160216
S1130710882369F11092160280915501843038F1D2
S11307208091550184508093550121C0C83369F4E8
S113073080911602813051F181E0809316028091FC
S113074055018C5F8093550121C0C93381F4809198
S11307501702882369F1109217028091550188309D
S113076038F18091550188508093550121C0C034DF
S113077069F480911702813051F181E0809317026E
S113078080915501885F8093550121C0C13481F463
S113079080911802882369F1109218028091550102
S11307A0803138F18091550180518093550121C0E9
S11307B0C23469F480911802813051F181E0809350
S11307C0180280915501805F8093550121C0C33484
S11307D081F480911902882369F1109219028091A1
S11307E05501803238F18091550180528093550132
S11307F021C0C43469F480911902813051F181E03F
S11308008093190280915501805E8093550121C027
S1130810C53481F480911A02882379F110921A0266
S113082080915501803448F1809155018054809322
S1130830550123C0C63469F480911A02813069F1EC
S113084081E080931A0280915501805C8093550168
S113085024C0C73491F480911B02882309F4A8C0F2
S113086010921B028091550188230CF0A1C0809145
S113087055018058809355019BC0C83471F4809110
S11308801B02813009F49AC081E080931B0280919D
S1130890550180588093550191C06091550184E4BD
S11308A00E945D00C93481F480911C02882379F18F
S11308B010921C0280915501882349F180915501C1
S11308C081508093550123C0C03569F480911C0286
S11308D0813069F181E080931C02809155018F5F22
S11308E08093550124C0C13591F480911D02882361
S11308F009F46AC010921D0280915501823008F4F7
S113090063C0809155018250809355015DC0C2350A
S113091071F480911D02813009F45CC081E0809300
S11309201D02809155018E5F8093550153C06091E3
S1130930540186E40E945D00C33539F487EE90E0EB
S1130940909389008093880012C0C43539F483EBF6
S113095092E0909389008093880042C0C53539F4B1
S113096083EB92E090938B0080938A0039C0C63564
S1130970B9F580E894E090938B0080938A0030C0AE
S11309806091570180E40E945D0002CE609157019E
S113099080E40E945D000BCE6091560182E40E94C7
S11309A05D00A3CE6091560182E40E945D00ACCE4E
S11309B06091550184E40E945D0086CF60915501E9
S11309C084E40E945D008FCF6091540186E40E940C
S11309D05D00BBCF6091540186E40E945D00BECFF0
S11309E0FF91EF91CF91BF91AF919F918F917F91A3
S11309F06F915F914F913F912F910F900FBE0F9088
S1130A001F90189584B5826084BD84B58E7F84BDA3
S1130A1085B5857F85BD85B5856085BD84E187BD48
S1130A20EEE6F0E08081826080830895CF93DF93C7
S1130A3000D01F92CDB7DEB7579A8FEF81B983E00C
S1130A4084B92898299A3C980E94DE000E94930059
S1130A500E946F000E94A8060E940205A8E8B0E068
S1130A6087EE90E011969C938E93EAE8F0E083EB96
S1130A7092E0918380832FEF3FE342E021503040A6
S1130A804040E1F700C0000011969C938E9380E8EB
S1130A9094E09183808385E090E05F9AEFEFFFE339
S1130AA022E0E150F0402040E1F700C000005F98F0
S1130AB03FEF4FE3E2E031504040E040E1F700C057
S1130AC00000019751F7FFEF2FE131E0F150204092
S1130AD03040E1F700C000008BE091E00E94BF00CD
S1130AE078940F2EF3E0EF2EF2E0FF2EF02D332456
S1130AF0339439826894222421F80F2EF3E46F2E64
S1130B00F1E07F2EF02D0F2EFCE5CF2EF1E0DF2E4D
S1130B10F02D0F2EFAE4AF2EF1E0BF2EF02D4C2C69
S1130B205D2C349910C0F7018685882309F404C12B
S1130B30168680915601803208F4FEC080915601D9
S1130B40805280935601349B0BC0F7018685813017
S1130B5039F0F701368680915601805E8093560104
S1130B60359B0BC0F7018785813009F4E8C03786CF
S1130B7080915601805C8093560135990FC0F7012E
S1130B808785882359F0F7011786809156018034B0
S1130B9028F080915601805480935601369B0BC0F7
S1130BA0F7018089813009F4CDC0308A80915601E3
S1130BB080588093560136990FC0F70180898823A5
S1130BC059F0F701108A8091560188232CF4809102
S1130BD05601805880935601379B0BC0F7018189D9
S1130BE0813009F4B2C0318A809155018F5F8093BE
S1130BF0550137990FC0F7018189882359F0F7010E
S1130C00118A80915501882329F0809155018150E2
S1130C108093550180910001813011F55F9A2092F3
S1130C2000016FE171E081E691E00E94D606892B14
S1130C3011F0109258016BE271E081E691E00E949C
S1130C40D606892B19F0F981F093580167E371E016
S1130C5081E691E00E94D606892B11F0209258017A
S1130C6080910202882309F45CCF1092530124E09E
S1130C7032E03B832A8301E010E08A809B80F40108
S1130C808081813099F4809153018F5F8093530167
S1130C901F930F937F926F92DF92CF920E94F00680
S1130CA00F900F900F900F900F900F902A813B811F
S1130CB02F5F3F4F3B832A83F401808181110EC053
S1130CC01F930F93BF92AF92DF92CF920E94F006D0
S1130CD00F900F900F900F900F900F90842D952DE3
S1130CE00E94BF008FEF97E40197F1F700C0000066
S1130CF00F5F1F4F0B31110509F0BFCF80915301D6
S1130D001F928F9384E491E09F938F93DF92CF920D
S1130D100E94F006C6010E94BF0010920202909148
S1130D2053018AE1891B0E944C010F900F900F9090
S1130D300F900F900F90F5CE34990BCF11CF359BB8
S1130D4022CF2CCF369B3DCF47CF379B58CF62CF96
S1130D508AE28093B8000895ECEBF0E0108284EA14
S1130D60808380818823ECF79091B900987F81E09B
S1130D70983009F080E008958093BB0084E8809364
S1130D80BC00ECEBF0E080818823ECF79091B90093
S1130D90987F983129F081E0903419F080E008952B
S1130DA081E0089584E98093BC000895FB0151918A
S1130DB05523A9F0BF01DC014D9145174111E1F71D
S1130DC059F4CD010190002049F04D914015411195
S1130DD0C9F3FB014111EFCF81E090E00197089541
S1130DE0AEE0B0E0E6EFF6E00C949F090D891E89B1
S1130DF086E08C831A8309838FEF9FE79E838D831C
S1130E00AE01475E5F4F6F89788DCE0101960E94D7
S1130E1013072F813885F801E20FF31F10822E96F5
S1130E20E4E00C94BB09ACE0B0E0E9E1F7E00C9439
S1130E3091097C016B018A01FC011782168283816E
S1130E4081FFBDC1CE0101964C01F7019381F601EA
S1130E5093FD859193FF81916F01882309F4ABC1C0
S1130E60853239F493FD859193FF81916F01853229
S1130E7029F4B70190E00E94FB08E7CF512C312CF4
S1130E8020E02032A0F48B3269F030F4803259F043
S1130E90833269F420612CC08D3239F0803339F407
S1130EA0216026C02260246023C0286021C027FD61
S1130EB027C030ED380F3A3078F426FF06C0FAE048
S1130EC05F9E300D1124532E13C08AE0389E300DDE
S1130ED01124332E20620CC08E3221F426FD6BC106
S1130EE0206406C08C3611F4206802C0883641F4B0
S1130EF0F60193FD859193FF81916F018111C1CF1B
S1130F00982F9F7D9554933028F40C5F1F4FFFE377
S1130F10F9830DC0833631F0833771F0833509F0DE
S1130F205BC022C0F801808189830E5F1F4F442477
S1130F304394512C540115C03801F2E06F0E711C1A
S1130F40F801A080B18026FF03C0652D70E002C0C7
S1130F506FEF7FEFC5012C870E94F0082C018301FD
S1130F602C852F77222E17C03801F2E06F0E711CEA
S1130F70F801A080B18026FF03C0652D70E002C097
S1130F806FEF7FEFC5012C870E94E5082C012C85AB
S1130F902068222E830123FC1BC0832D90E0481679
S1130FA05906B0F4B70180E290E00E94FB083A943D
S1130FB0F4CFF50127FC859127FE81915F01B701EC
S1130FC090E00E94FB0831103A94F1E04F1A510866
S1130FD04114510471F7E5C0843611F0893639F5AE
S1130FE0F80127FF07C060817181828193810C5FC2
S1130FF01F4F08C060817181072E000C880B990B6C
S11310000E5F1F4F2F76722E97FF09C09095809523
S1131010709561957F4F8F4F9F4F2068722E2AE005
S113102030E0A4010E943309A82EA81844C08537D3
S113103029F42F7EB22E2AE030E025C0F22FF97F6A
S1131040BF2E8F36C1F018F4883579F0B4C08037DC
S113105019F0883721F0AFC02F2F2061B22EB4FED3
S11310600DC08B2D8460B82E09C024FF0AC09F2FA9
S11310709660B92E06C028E030E005C020E130E0DB
S113108002C020E132E0F801B7FE07C0608171813F
S1131090828193810C5F1F4F06C06081718180E063
S11310A090E00E5F1F4FA4010E943309A82EA818D8
S11310B0FB2DFF777F2E76FE0BC0372D3E7FA514C8
S11310C050F474FE0AC072FC08C0372D3E7E05C081
S11310D0BA2C372D03C0BA2C01C0B52C34FF0DC077
S11310E0FE01EA0DF11D8081803311F4397E09C0BF
S11310F032FF06C0B394B39404C0832F867809F0FA
S1131100B39433FD13C030FF06C05A2CB31418F443
S1131110530C5B18B32CB31468F4B70180E290E06D
S11311203C870E94FB08B3943C85F5CFB31410F4BC
S11311303B1801C0312C34FF12C0B70180E390E0AA
S11311403C870E94FB083C8532FF17C031FD03C079
S113115088E790E002C088E590E0B7010CC0832FD7
S1131160867859F031FF02C08BE201C080E237FD7E
S11311708DE2B70190E00E94FB08A51438F4B70192
S113118080E390E00E94FB085A94F7CFAA94F401FC
S1131190EA0DF11D8081B70190E00E94FB08A110C7
S11311A0F5CF332009F451CEB70180E290E00E94DC
S11311B0FB083A94F6CFF7018681978102C08FEF3E
S11311C09FEF2C96E2E10C94AD09FC01059061506F
S11311D070400110D8F7809590958E0F9F1F089549
S11311E0FC016150704001900110D8F780959095F2
S11311F08E0F9F1F08950F931F93CF93DF93FB01CF
S1131200238121FD03C08FEF9FEF28C022FF16C06A
S113121046815781248135814217530744F4A081C4
S1131220B1819D012F5F3F4F318320838C932681B1
S113123037812F5F3F4F3783268310C0EB01092F7F
S1131240182F0084F185E02D0995892BE1F68E8114
S11312509F8101969F838E83812F902FDF91CF9161
S11312601F910F910895FA01AA27283051F12031D6
S113127081F1E8946F936E7F6E5F7F4F8F4F9F4F26
S1131280AF4FB1E03ED0B4E03CD0670F781F891F68
S11312909A1FA11D680F791F8A1F911DA11D6A0F36
S11312A0711D811D911DA11D20D009F468943F91E9
S11312B02AE0269F11243019305D3193DEF6CF01E8
S11312C00895462F4770405D4193B3E00FD0C9F7AE
S11312D0F6CF462F4F70405D4A3318F0495D31FD1B
S11312E04052419302D0A9F7EACFB4E0A69597956E
S11312F0879577956795BA95C9F700976105710544
S113130008959B01AC010A2E06945795479537958D
S11313102795BA95C9F7620F731F841F951FA01DE7
S113132008952F923F924F925F926F927F928F9285
S11313309F92AF92BF92CF92DF92EF92FF920F9360
S11313401F93CF93DF93CDB7DEB7CA1BDB0B0FB66A
S1131350F894DEBF0FBECDBF09942A883988488827
S11313605F846E847D848C849B84AA84B984C884BD
S1131370DF80EE80FD800C811B81AA81B981CE0FB4
S1131380D11D0FB6F894DEBF0FBECDBFED01089599
S1071390F894FFCFFB
S113139402C0F9A4B0999282F880900D0A50415287
S11313A44B494E472D4F50474553544152540073B3
S11313B46C6167626F6F6D312D3000736C616762AD
S11313C46F6F6D312D3100736C6167626F6F6D31B6
S11313D42D3200504225640D0A00504C25640D0A38
S10513E4000003
S9030000FC
