:100000000C943E000C945B000C945B000C945B0021
:100010000C945B000C945B000C945B000C945B00F4
:100020000C945B000C945B000C945B000C945B00E4
:100030000C945B000C945B000C945B000C945B00D4
:100040000C94C1010C945B000C945B000C945B005D
:100050000C9498010C945B000C945B000C945B0076
:100060000C945B000C945B000C945B000C945B00A4
:100070000C945B000C945B000C945B0011241FBE7D
:10008000CFEFD8E0DEBFCDBF11E0A0E0B1E0E8EAFD
:10009000F5E002C005900D92A230B107D9F721E03A
:1000A000A2E0B1E001C01D92AF31B207E1F70E94BA
:1000B000F6010C94D2020C940000813039F46623CE
:1000C00009F4BAC0613009F0B6C0B8C0823039F462
:1000D000662309F4B5C0613009F0ADC0B3C0833008
:1000E00039F4662309F4B0C0613009F0A4C0AEC091
:1000F000843039F4662309F4ABC0613009F09BC049
:10010000A9C0853039F4662309F4A6C0613009F02E
:1001100092C0A4C0863039F4662309F4A1C06130CE
:1001200009F089C09FC0873039F4662309F49CC068
:10013000613009F080C09AC0883039F4662309F430
:1001400097C0613009F077C095C0893039F46623D3
:1001500009F492C0613009F06EC090C08A3039F461
:10016000662309F48DC0613009F065C08BC08B3007
:1001700039F4662309F488C0613009F05CC086C098
:100180008C3039F4662309F483C0613009F053C020
:1001900081C08D3039F4662309F47EC0613009F0E6
:1001A0004AC07CC0823139F4662309F479C06130D9
:1001B00009F041C077C0833131F4662309F474C07B
:1001C0006130C9F573C0843131F4662309F470C01D
:1001D000613089F56FC0853131F4662309F46CC054
:1001E000613049F56BC0863131F4662309F468C08B
:1001F000613009F567C0873131F4662309F464C0C2
:100200006130C9F463C0883131F4662309F460C0F9
:10021000613089F45FC0893131F4662309F45CC030
:10022000613049F45BC08A3131F4662309F458C067
:10023000613009F457C0089581E0089582E008957F
:1002400083E0089584E0089585E0089586E00895A8
:1002500087E0089588E0089589E0089580E1089591
:1002600081E1089582E1089583E1089584E108958C
:1002700085E1089586E1089587E1089588E108956C
:1002800089E1089580E2089581E2089582E2089567
:1002900083E2089584E2089585E2089586E2089550
:1002A00085E3089586E3089587E3089588E3089534
:1002B00089E3089580E4089581E4089582E408952F
:1002C00083E4089584E4089585E4089586E4089518
:1002D00087E4089588E4089589E4089580E5089501
:1002E00081E5089582E508955098519AE0ECF0E098
:1002F00080818D7F808387E190E09093C50080931B
:10030000C400A2ECB0E08C9186608C93E1ECF0E04C
:1003100080818B7F80838C91877F8C938C918F7E63
:100320008C93808188618083808180688083089538
:100330001F920F920FB60F9211240F900FBE0F90C5
:100340001F901895E0ECF0E0908195FFFDCF809331
:10035000C60008950898389A84B5826084BD84B533
:100360008E7F84BD85B5857F85BD85B5856085BD5E
:1003700080EE87BDEEE6F0E0808182608083789435
:1003800008951F920F920FB60F9211248F938091B0
:1003900002018F5F8093020180910201803429F471
:1003A0001092020181E080931E018F910F900FBE89
:1003B0000F901F9018950F980C980B9838983998B3
:1003C0003A983B983C983D983E983F985698559857
:1003D00054985398529824982398229821982098BA
:1003E00008980E980D980A98099808950E9474012B
:1003F0000E94DB010E94AA01579AC3E0D1E011E0FC
:10040000D12E079B02C0198202C0079B1983049B4F
:1004100002C01A8202C0049B1A83039B02C01B8283
:1004200002C0039B1B83309B02C01C8302C0309B15
:100430001C82319B02C01D8302C0319B1D82329BF6
:1004400002C01E8302C0329B1E82339B02C01F83E8
:1004500002C0339B1F82349B02C0188702C0349BAA
:100460001886359B02C0198702C0359B1986369BBA
:1004700002C01A8702C0369B1A86379B02C01B87B0
:1004800002C0379B1B864E9B02C01C8702C04E9B3E
:100490001C864D9B02C01D8702C04D9B1D864C9B38
:1004A00002C01A8B02C04C9B1A8A4B9B02C01B8B4A
:1004B00002C04B9B1B8A4A9B02C01C8B02C04A9BFA
:1004C0001C8A1A9B02C01D8B02C01A9B1D8A1B9B93
:1004D00002C01E8B02C01B9B1E8A1A9B02C01F8B70
:1004E00002C01A9B1F8A199B02C0188F02C0199B59
:1004F000188E189B02C0198F02C0189B198E009B82
:1005000002C01A8F02C0009B1A8E06990CC08091FF
:100510000101811108C083E50E94A201D09201016E
:10052000059B07C00BC0059909C08091010181306E
:1005300029F484E50E94A2011092010102990CC0E5
:1005400080910001811108C085E50E94A201D0922E
:100550000001019B07C00BC0019909C080910001F7
:10056000813029F486E50E94A20110920001809159
:100570001E01882309F445CF7E0100E0F701619157
:100580007F01802F0E945D000E94A2018FEF97E4FF
:100590000197F1F700C000000F5F0B3179F710925F
:0805A0001E012FCFF894FFCFDC
:0205A80001014F
:00000001FF
