:100000000C943E000C9450000C9450000C94500042
:100010000C9450000C9450000C9450000C94500020
:100020000C9450000C9450000C9450000C94500010
:100030000C9450000C9450000C9450000C94500000
:100040000C94B6010C9450000C9450000C94500089
:100050000C948D010C9450000C9450000C945000A2
:100060000C9450000C9450000C9450000C945000D0
:100070000C9450000C9450000C94500011241FBE9E
:10008000CFEFD8E0DEBFCDBF21E0A0E0B1E001C0FE
:100090001D92AD31B207E1F70E94E7010C946502B1
:1000A0000C940000813039F4662309F4BAC0613041
:1000B00009F0B6C0B8C0823039F4662309F4B5C07F
:1000C000613009F0ADC0B3C0833039F4662309F460
:1000D000B0C0613009F0A4C0AEC0843039F46623EA
:1000E00009F4ABC0613009F09BC0A9C0853039F478
:1000F000662309F4A6C0613009F092C0A4C086301E
:1001000039F4662309F4A1C0613009F089C09FC0A9
:10011000873039F4662309F49CC0613009F080C04F
:100120009AC0883039F4662309F497C0613009F029
:1001300077C095C0893039F4662309F492C06130E4
:1001400009F06EC090C08A3039F4662309F48DC07E
:10015000613009F065C08BC08B3039F4662309F437
:1001600088C0613009F05CC086C08C3039F46623E9
:1001700009F483C0613009F053C081C08D3039F477
:10018000662309F47EC0613009F04AC07CC0823128
:1001900039F4662309F479C0613009F041C077C0B1
:1001A000833131F4662309F474C06130C9F573C03A
:1001B000843131F4662309F470C0613089F56FC071
:1001C000853131F4662309F46CC0613049F56BC0A8
:1001D000863131F4662309F468C0613009F567C0DF
:1001E000873131F4662309F464C06130C9F463C017
:1001F000883131F4662309F460C0613089F45FC04E
:10020000893131F4662309F45CC0613049F45BC084
:100210008A3131F4662309F458C0613009F457C0BB
:10022000089581E0089582E0089583E0089584E0D0
:10023000089585E0089586E0089587E0089588E0B0
:10024000089589E0089580E1089581E1089582E1AB
:10025000089583E1089584E1089585E1089586E194
:10026000089587E1089588E1089589E1089580E27D
:10027000089581E2089582E2089583E2089584E278
:10028000089585E2089586E2089585E3089586E35A
:10029000089587E3089588E3089589E3089580E445
:1002A000089581E4089582E4089583E4089584E440
:1002B000089585E4089586E4089587E4089588E420
:1002C000089589E4089580E5089581E5089582E51B
:1002D00008955098519AE0ECF0E080818D7F808302
:1002E00087E190E09093C5008093C400A2ECB0E059
:1002F0008C9186608C93E1ECF0E080818B7F808331
:100300008C91877F8C938C918F7E8C938081886178
:10031000808380818068808308951F920F920FB63A
:100320000F9211240F900FBE0F901F901895E0ECC4
:10033000F0E0908195FFFDCF8093C6000895089866
:10034000389A84B5826084BD84B58E7F84BD85B5BE
:10035000857F85BD85B5856085BD80EE87BDEEE670
:10036000F0E0808182608083789408951F920F92DC
:100370000FB60F9211248F93809100018F5F8093AD
:10038000000180910001803429F41092000181E085
:1003900080931C018F910F900FBE0F901F901895A6
:1003A0000F980C980B98389839983A983B983C9845
:1003B0003D983E983F98569855985498539852981F
:1003C00024982398229821982098089808950E94AC
:1003D00069010E94D0010E949F01579AC1E0D1E0BB
:1003E00011E0D12C07991982079B198304991A826D
:1003F000049B1A8303991B82039B1B8330991C83E4
:10040000309B1C8231991D83319B1D8232991E8342
:10041000329B1E8233991F83339B1F823499188726
:10042000349B188635991987359B198636991A8712
:10043000369B1A8637991B87379B1B864E991C87DC
:100440004E9B1C864D991D874D9B1D864C991A8B82
:100450004C9B1A8A4B991B8B4B9B1B8A4A991C8B72
:100460004A9B1C8A1A991D8B1A9B1D8A1B991E8BED
:100470001B9B1E8A1A991F8B1A9B1F8A1999188F0A
:10048000199B188E1899198F189B198E00991A8F1D
:10049000009B1A8E80911C01882309F4A3CF7E0152
:1004A0000D2DF70161917F01802F0E9452000E9463
:1004B00097018FEF97E40197F1F700C000000F5FFD
:0E04C0000B3179F7D0921C018DCFF894FFCF4D
:00000001FF
